{
  "contractName": "TubblyToken",
  "abi": [
    {
      "inputs": [],
      "stateMutability": "nonpayable",
      "type": "constructor"
    },
    {
      "inputs": [],
      "name": "totalSupply",
      "outputs": [
        {
          "internalType": "uint256",
          "name": "",
          "type": "uint256"
        }
      ],
      "stateMutability": "view",
      "type": "function",
      "constant": true
    }
  ],
  "bytecode": "0x608060405234801561001057600080fd5b50620f42406000808282546100259190610031565b925050819055506100c0565b600061003c82610087565b915061004783610087565b9250827fffffffffffffffffffffffffffffffffffffffffffffffffffffffffffffffff0382111561007c5761007b610091565b5b828201905092915050565b6000819050919050565b7f4e487b7100000000000000000000000000000000000000000000000000000000600052601160045260246000fd5b60b3806100ce6000396000f3fe6080604052348015600f57600080fd5b506004361060285760003560e01c806318160ddd14602d575b600080fd5b60336047565b604051603e9190605a565b60405180910390f35b60005481565b6054816073565b82525050565b6000602082019050606d6000830184604d565b92915050565b600081905091905056fea2646970667358221220a675de98d93dec0927150e50db56c06f67f7956cbfb2b7164638f7c8e31d794064736f6c63430008010033",
  "immutableReferences": {},
  "source": "pragma solidity ^0.8.0;\n\ncontract TubblyToken {\n\tuint256 public totalSupply;\n\n\tconstructor() {\n\t\ttotalSupply += 1_000_000;\n\t}\t\n}",
  "sourcePath": "/home/josh/Tubbly/DappUniversity/token_sale/contracts/TubblyToken.sol",
  "compiler": {
    "name": "solc",
    "version": "0.8.1+commit.df193b15.Emscripten.clang"
  },
  "schemaVersion": "3.3.4",
  "updatedAt": "2021-04-29T16:03:42.466Z",
  "networkType": "ethereum",
  "devdoc": {
    "kind": "dev",
    "methods": {},
    "version": 1
  },
  "userdoc": {
    "kind": "user",
    "methods": {},
    "version": 1
  }
}