{
  "contractName": "TubblySale",
  "abi": [
    {
      "inputs": [
        {
          "internalType": "contract TubblyToken",
          "name": "_tokenContract",
          "type": "address"
        },
        {
          "internalType": "uint256",
          "name": "_tokenPrice",
          "type": "uint256"
        }
      ],
      "stateMutability": "nonpayable",
      "type": "constructor"
    },
    {
      "anonymous": false,
      "inputs": [
        {
          "indexed": false,
          "internalType": "address",
          "name": "_buyer",
          "type": "address"
        },
        {
          "indexed": false,
          "internalType": "uint256",
          "name": "_amount",
          "type": "uint256"
        }
      ],
      "name": "Sell",
      "type": "event"
    },
    {
      "inputs": [],
      "name": "tokenContract",
      "outputs": [
        {
          "internalType": "contract TubblyToken",
          "name": "",
          "type": "address"
        }
      ],
      "stateMutability": "view",
      "type": "function",
      "constant": true
    },
    {
      "inputs": [],
      "name": "tokenPrice",
      "outputs": [
        {
          "internalType": "uint256",
          "name": "",
          "type": "uint256"
        }
      ],
      "stateMutability": "view",
      "type": "function",
      "constant": true
    },
    {
      "inputs": [],
      "name": "tokenSold",
      "outputs": [
        {
          "internalType": "uint256",
          "name": "",
          "type": "uint256"
        }
      ],
      "stateMutability": "view",
      "type": "function",
      "constant": true
    },
    {
      "inputs": [
        {
          "internalType": "uint256",
          "name": "_numberOfTokens",
          "type": "uint256"
        }
      ],
      "name": "buyTokens",
      "outputs": [],
      "stateMutability": "payable",
      "type": "function",
      "payable": true
    },
    {
      "inputs": [],
      "name": "endSale",
      "outputs": [],
      "stateMutability": "nonpayable",
      "type": "function"
    }
  ],
  "bytecode": "0x608060405234801561001057600080fd5b50604051610a9b380380610a9b83398181016040528101906100329190610106565b336000806101000a81548173ffffffffffffffffffffffffffffffffffffffff021916908373ffffffffffffffffffffffffffffffffffffffff16021790555081600160006101000a81548173ffffffffffffffffffffffffffffffffffffffff021916908373ffffffffffffffffffffffffffffffffffffffff160217905550806002819055506001600460006101000a81548160ff02191690831515021790555050506101be565b6000815190506100eb81610190565b92915050565b600081519050610100816101a7565b92915050565b6000806040838503121561011957600080fd5b6000610127858286016100dc565b9250506020610138858286016100f1565b9150509250929050565b600061014d82610166565b9050919050565b600061015f82610142565b9050919050565b600073ffffffffffffffffffffffffffffffffffffffff82169050919050565b6000819050919050565b61019981610154565b81146101a457600080fd5b50565b6101b081610186565b81146101bb57600080fd5b50565b6108ce806101cd6000396000f3fe60806040526004361061004a5760003560e01c80633610724e1461004f578063380d831b1461006b578063519ee19e1461008257806355a373d6146100ad5780637ff9b596146100d8575b600080fd5b610069600480360381019061006491906105c6565b610103565b005b34801561007757600080fd5b506100806102fe565b005b34801561008e57600080fd5b506100976104f5565b6040516100a491906106a4565b60405180910390f35b3480156100b957600080fd5b506100c26104fb565b6040516100cf9190610689565b60405180910390f35b3480156100e457600080fd5b506100ed610521565b6040516100fa91906106a4565b60405180910390f35b60011515600460009054906101000a900460ff1615151461012357600080fd5b61012f81600254610527565b341461013a57600080fd5b80600160009054906101000a900473ffffffffffffffffffffffffffffffffffffffff1673ffffffffffffffffffffffffffffffffffffffff166370a08231306040518263ffffffff1660e01b81526004016101969190610645565b60206040518083038186803b1580156101ae57600080fd5b505afa1580156101c2573d6000803e3d6000fd5b505050506040513d601f19601f820116820180604052508101906101e691906105ef565b10156101f157600080fd5b600160009054906101000a900473ffffffffffffffffffffffffffffffffffffffff1673ffffffffffffffffffffffffffffffffffffffff1663a9059cbb33836040518363ffffffff1660e01b815260040161024e929190610660565b602060405180830381600087803b15801561026857600080fd5b505af115801561027c573d6000803e3d6000fd5b505050506040513d601f19601f820116820180604052508101906102a0919061059d565b6102a957600080fd5b80600360008282546102bb91906106bf565b925050819055507f5e5e995ce3133561afceaa51a9a154d5db228cd7525d34df5185582c18d3df0933826040516102f3929190610660565b60405180910390a150565b60008054906101000a900473ffffffffffffffffffffffffffffffffffffffff1673ffffffffffffffffffffffffffffffffffffffff163373ffffffffffffffffffffffffffffffffffffffff161461035657600080fd5b600160009054906101000a900473ffffffffffffffffffffffffffffffffffffffff1673ffffffffffffffffffffffffffffffffffffffff1663a9059cbb60008054906101000a900473ffffffffffffffffffffffffffffffffffffffff16600160009054906101000a900473ffffffffffffffffffffffffffffffffffffffff1673ffffffffffffffffffffffffffffffffffffffff166370a08231306040518263ffffffff1660e01b81526004016104109190610645565b60206040518083038186803b15801561042857600080fd5b505afa15801561043c573d6000803e3d6000fd5b505050506040513d601f19601f8201168201806040525081019061046091906105ef565b6040518363ffffffff1660e01b815260040161047d929190610660565b602060405180830381600087803b15801561049757600080fd5b505af11580156104ab573d6000803e3d6000fd5b505050506040513d601f19601f820116820180604052508101906104cf919061059d565b6104d857600080fd5b6000600460006101000a81548160ff021916908315150217905550565b60035481565b600160009054906101000a900473ffffffffffffffffffffffffffffffffffffffff1681565b60025481565b60008082148061054f5750828283856105409190610746565b92508261054d9190610715565b145b61055857600080fd5b92915050565b60008151905061056d8161086a565b92915050565b60008135905061058281610881565b92915050565b60008151905061059781610881565b92915050565b6000602082840312156105af57600080fd5b60006105bd8482850161055e565b91505092915050565b6000602082840312156105d857600080fd5b60006105e684828501610573565b91505092915050565b60006020828403121561060157600080fd5b600061060f84828501610588565b91505092915050565b610621816107a0565b82525050565b610630816107e8565b82525050565b61063f816107de565b82525050565b600060208201905061065a6000830184610618565b92915050565b60006040820190506106756000830185610618565b6106826020830184610636565b9392505050565b600060208201905061069e6000830184610627565b92915050565b60006020820190506106b96000830184610636565b92915050565b60006106ca826107de565b91506106d5836107de565b9250827fffffffffffffffffffffffffffffffffffffffffffffffffffffffffffffffff0382111561070a5761070961080c565b5b828201905092915050565b6000610720826107de565b915061072b836107de565b92508261073b5761073a61083b565b5b828204905092915050565b6000610751826107de565b915061075c836107de565b9250817fffffffffffffffffffffffffffffffffffffffffffffffffffffffffffffffff04831182151516156107955761079461080c565b5b828202905092915050565b60006107ab826107be565b9050919050565b60008115159050919050565b600073ffffffffffffffffffffffffffffffffffffffff82169050919050565b6000819050919050565b60006107f3826107fa565b9050919050565b6000610805826107be565b9050919050565b7f4e487b7100000000000000000000000000000000000000000000000000000000600052601160045260246000fd5b7f4e487b7100000000000000000000000000000000000000000000000000000000600052601260045260246000fd5b610873816107b2565b811461087e57600080fd5b50565b61088a816107de565b811461089557600080fd5b5056fea264697066735822122017fc36cc79ab0b0f1bde57777d8abdfdad5062d9a89f18d385bf119bdad8292364736f6c63430008010033",
  "immutableReferences": {},
  "source": "pragma solidity ^0.8.0;\n\n/**\n * The TubblySale contract does this and that...\n */\n\nimport \"./TubblyToken.sol\";\n\ncontract TubblySale {\n\n\taddress admin;\n\tTubblyToken public tokenContract;\n\tuint256 public tokenPrice;\n\tuint256 public tokenSold;\n\tbool saleActive;\n\n\tevent Sell(\n\t\taddress  _buyer,\n\t\tuint256 _amount\n\t);\n\n\tconstructor(TubblyToken _tokenContract, uint256 _tokenPrice) {\n\t\t  admin = msg.sender;\n\t\t  tokenContract = _tokenContract;\n    \ttokenPrice = _tokenPrice;\n    \tsaleActive = true;\n  \t}\n\n  \tfunction multiply(uint x, uint y) internal pure returns (uint z) {\n  \t\trequire(y == 0 || (z = x * y) / y == x);\n \t  }\n\n  \tfunction buyTokens(uint256 _numberOfTokens) public payable {\n  \t\trequire(saleActive == true);\n  \t\trequire(msg.value == multiply(_numberOfTokens, tokenPrice));\n\t\t  require(tokenContract.balanceOf(address(this)) >= _numberOfTokens);\n      require(tokenContract.transfer(msg.sender, _numberOfTokens));\n\n  \t\ttokenSold += _numberOfTokens;\n  \t\temit Sell(msg.sender, _numberOfTokens);\n  \t}\n\n  \tfunction endSale() public {\n  \t\trequire(msg.sender == admin);\n  \t\trequire(tokenContract.transfer(admin, tokenContract.balanceOf(address(this))));\n  \t\tsaleActive = false;\n  \t\t// transfer.\n  \t}\n}\n",
  "sourcePath": "/home/josh/Tubbly/DappUniversity/token_sale/contracts/TubblySale.sol",
  "compiler": {
    "name": "solc",
    "version": "0.8.1+commit.df193b15.Emscripten.clang"
  },
  "schemaVersion": "3.4.0",
  "updatedAt": "2021-04-30T18:42:58.540Z",
  "networkType": "ethereum",
  "devdoc": {
    "kind": "dev",
    "methods": {},
    "version": 1
  },
  "userdoc": {
    "kind": "user",
    "methods": {},
    "version": 1
  }
}